{
  "contractName": "SquareVerifier",
  "abi": [
    {
      "constant": false,
      "inputs": [
        {
          "name": "a",
          "type": "uint256[2]"
        },
        {
          "name": "b",
          "type": "uint256[2][2]"
        },
        {
          "name": "c",
          "type": "uint256[2]"
        },
        {
          "name": "input",
          "type": "uint256[2]"
        }
      ],
      "name": "verifyTx",
      "outputs": [
        {
          "name": "r",
          "type": "bool"
        }
      ],
      "payable": false,
      "stateMutability": "nonpayable",
      "type": "function"
    },
    {
      "anonymous": false,
      "inputs": [
        {
          "indexed": false,
          "name": "s",
          "type": "string"
        }
      ],
      "name": "Verified",
      "type": "event"
    }
  ],
  "bytecode": "0x608060405234801561001057600080fd5b506110f5806100206000396000f3fe608060405234801561001057600080fd5b506004361061002b5760003560e01c8063621e9ec014610030575b600080fd5b61018f600480360361014081101561004757600080fd5b8101908080604001906002806020026040519081016040528092919082600260200280828437600081840152601f19601f82011690508083019250505050505091929192908060800190600280602002604051908101604052809291906000905b828210156100fc578382604002016002806020026040519081016040528092919082600260200280828437600081840152601f19601f820116905080830192505050505050815260200190600101906100a8565b50505050919291929080604001906002806020026040519081016040528092919082600260200280828437600081840152601f19601f820116905080830192505050505050919291929080604001906002806020026040519081016040528092919082600260200280828437600081840152601f19601f82011690508083019250505050505091929192905050506101a9565b604051808215151515815260200191505060405180910390f35b60006101b3610f49565b6040518060400160405280876000600281106101cb57fe5b60200201518152602001876001600281106101e257fe5b60200201518152508160000181905250604051806040016040528060405180604001604052808860006002811061021557fe5b602002015160006002811061022657fe5b602002015181526020018860006002811061023d57fe5b602002015160016002811061024e57fe5b6020020151815250815260200160405180604001604052808860016002811061027357fe5b602002015160006002811061028457fe5b602002015181526020018860016002811061029b57fe5b60200201516001600281106102ac57fe5b602002015181525081525081602001819052506040518060400160405280856000600281106102d757fe5b60200201518152602001856001600281106102ee57fe5b60200201518152508160400181905250606060026040519080825280602002602001820160405280156103305781602001602082028038833980820191505090505b50905060008090505b60028110156103785784816002811061034e57fe5b602002015182828151811061035f57fe5b6020026020010181815250508080600101915050610339565b50600061038582846103f0565b14156103e1577f3f3cfdb26fb5f9f1786ab4f1a1f9cd4c0b5e726cbdfc26e495261731aad44e396040518080602001828103825260228152602001806110a86022913960400191505060405180910390a16001925050506103e8565b6000925050505b949350505050565b6000807f30644e72e131a029b85045b68181585d2833e84879b9709143e1f593f0000001905061041e610f7d565b610426610562565b905080608001515160018651011461043d57600080fd5b610445610fc5565b6040518060400160405280600081526020016000815250905060008090505b86518110156104db578387828151811061047a57fe5b60200260200101511061048c57600080fd5b6104cc826104c7856080015160018501815181106104a657fe5b60200260200101518a85815181106104ba57fe5b60200260200101516109af565b610a43565b91508080600101915050610464565b506104fe8183608001516000815181106104f157fe5b6020026020010151610a43565b90506105448560000151866020015161051684610af6565b85604001516105288a60400151610af6565b876060015161053a8960000151610af6565b8960200151610b90565b610554576001935050505061055c565b600093505050505b92915050565b61056a610f7d565b60405180604001604052807f0e54f0485cc4d45d49b43b927301b4dbb10d26130659acea660409f34006409e81526020017f2c6c8c8f8505d4851692bfc91fa82808e15224b09e426dc66c87eb544b95b5298152508160000181905250604051806040016040528060405180604001604052807f2a846129e0b5a85229322759dfb8fffa5ab64ad0bfd73c38cf79c6267ef6c10981526020017f2f535fce79d0c163e73ac2f49e3ec221f2f1672855880899cfca163052771648815250815260200160405180604001604052807f2e796275d3c7134831d676a2f277282e34cf3147226d85b73094662d13c42c1681526020017f1c4ff85f7841be31ac3a5279dae287bbbdc320d99941c80d4a1920d753ef43f88152508152508160200181905250604051806040016040528060405180604001604052807f1482b1478ef1734d92b13cdc01afaa6f73fa5c2e12479b024410155c3dbb740d81526020017f19a2dbc0d6601b5581ee7dbb423abaa7c7b1ebd3b07548eb8771909f627d7a2f815250815260200160405180604001604052807f0467be3c18115032dea04bfec610599e00c312378fa520a53dc7644b1143ab1881526020017f275fcfd1964b1df6e2354848f0429a4a404df88ca0cf6a713f2e4d599b0d98da8152508152508160400181905250604051806040016040528060405180604001604052807f255ec0d261b2ab2b84315ab9e1c9eef045d6245e03d59c84e1931ec7b08a99b981526020017f0a2b08e31ec015893489bbb48960f4fa22d0c15b50ae50a56a86790f70a39729815250815260200160405180604001604052807f23b947d5d430078d26371b779682044b28631017c683f9d825cf0833b4f4702d81526020017f26cf14b193479aa669a144c6a92f40a525eee997f7fad28e1e9b448480b77b398152508152508160600181905250600360405190808252806020026020018201604052801561085157816020015b61083e610fdf565b8152602001906001900390816108365790505b50816080018190525060405180604001604052807f1bc70908e84879f4da210e7bd757eada4453c47bfde6cfc6568b35e4137c28b881526020017f2d383d93928ea10bc1438521330fbe7e66cf88b3c67e71829d5c4a661861247981525081608001516000815181106108c057fe5b602002602001018190525060405180604001604052807f070a497dcde2a3d60cfc496e7c62801f397c83f9265e45d0034deff789d1a25c81526020017e4be642499b99cd0aeeb570a29accb5c4dca157cd9a68de1b516c0a937b9137815250816080015160018151811061093057fe5b602002602001018190525060405180604001604052807f2ee4e4e28172d365eb03a7d02c705671ee11c1a29f1195c089377bbfbeda58c981526020017f0525a0633538fc214035bd539625756df1d252fe9af02c260a1be168ccacff5781525081608001516002815181106109a157fe5b602002602001018190525090565b6109b7610fc5565b6109bf610ff9565b8360000151816000600381106109d157fe5b6020020181815250508360200151816001600381106109ec57fe5b6020020181815250508281600260038110610a0357fe5b6020020181815250506000606083608084600060076107d05a03f190508060008114610a2e57610a30565bfe5b5080610a3b57600080fd5b505092915050565b610a4b610fc5565b610a5361101b565b836000015181600060048110610a6557fe5b602002018181525050836020015181600160048110610a8057fe5b602002018181525050826000015181600260048110610a9b57fe5b602002018181525050826020015181600360048110610ab657fe5b602002018181525050600060608360c084600060066107d05a03f190508060008114610ae157610ae3565bfe5b5080610aee57600080fd5b505092915050565b610afe610fc5565b60007f30644e72e131a029b85045b68181585d97816a916871ca8d3c208c16d87cfd47905060008360000151148015610b3b575060008360200151145b15610b5f576040518060400160405280600081526020016000815250915050610b8b565b60405180604001604052808460000151815260200182856020015181610b8157fe5b0683038152509150505b919050565b600060606004604051908082528060200260200182016040528015610bcf57816020015b610bbc610fdf565b815260200190600190039081610bb45790505b50905060606004604051908082528060200260200182016040528015610c0f57816020015b610bfc61103d565b815260200190600190039081610bf45790505b5090508a82600081518110610c2057fe5b60200260200101819052508882600181518110610c3957fe5b60200260200101819052508682600281518110610c5257fe5b60200260200101819052508482600381518110610c6b57fe5b60200260200101819052508981600081518110610c8457fe5b60200260200101819052508781600181518110610c9d57fe5b60200260200101819052508581600281518110610cb657fe5b60200260200101819052508381600381518110610ccf57fe5b6020026020010181905250610ce48282610cf4565b9250505098975050505050505050565b60008151835114610d0457600080fd5b6000835190506000600682029050606081604051908082528060200260200182016040528015610d435781602001602082028038833980820191505090505b50905060008090505b83811015610ee957868181518110610d6057fe5b602002602001015160000151826000600684020181518110610d7e57fe5b602002602001018181525050868181518110610d9657fe5b602002602001015160200151826001600684020181518110610db457fe5b602002602001018181525050858181518110610dcc57fe5b602002602001015160000151600060028110610de457fe5b6020020151826002600684020181518110610dfb57fe5b602002602001018181525050858181518110610e1357fe5b602002602001015160000151600160028110610e2b57fe5b6020020151826003600684020181518110610e4257fe5b602002602001018181525050858181518110610e5a57fe5b602002602001015160200151600060028110610e7257fe5b6020020151826004600684020181518110610e8957fe5b602002602001018181525050858181518110610ea157fe5b602002602001015160200151600160028110610eb957fe5b6020020151826005600684020181518110610ed057fe5b6020026020010181815250508080600101915050610d4c565b50610ef2611063565b60006020826020860260208601600060086107d05a03f190508060008114610f1957610f1b565bfe5b5080610f2657600080fd5b600082600060018110610f3557fe5b602002015114159550505050505092915050565b604051806101000160405280610f5d610fdf565b8152602001610f6a61103d565b8152602001610f77610fdf565b81525090565b604051806101e00160405280610f91610fdf565b8152602001610f9e61103d565b8152602001610fab61103d565b8152602001610fb861103d565b8152602001606081525090565b604051806040016040528060008152602001600081525090565b604051806040016040528060008152602001600081525090565b6040518060600160405280600390602082028038833980820191505090505090565b6040518060800160405280600490602082028038833980820191505090505090565b6040518060800160405280611050611085565b815260200161105d611085565b81525090565b6040518060200160405280600190602082028038833980820191505090505090565b604051806040016040528060029060208202803883398082019150509050509056fe5472616e73616374696f6e207375636365737366756c6c792076657269666965642ea165627a7a72305820d676c98e98e11057928f97ad3db489e4328ddd7c0efe514201ba0aef70ea7d400029",
  "source": "pragma solidity >=0.4.21 <0.6.0;\n\nimport \"openzeppelin-solidity/contracts/utils/Address.sol\";\nimport \"./verifier.sol\";\nimport \"./ERC721Mintable.sol\";\n\n// TODO define a contract call to the zokrates generated solidity contract <Verifier> or <renamedVerifier>\ncontract SquareVerifier is Verifier {\n\n}\n\n\n// TODO define another contract named SolnSquareVerifier that inherits from your ERC721Mintable class\ncontract SolnSquareVerifier is CustomERC721Token {\n    \n    SquareVerifier public verifier;\n\n    constructor(address verifierAddress) CustomERC721Token() public {\n        verifier = SquareVerifier(verifierAddress);\n    }    \n\n    // TODO define a solutions struct that can hold an index & an address\n    struct Solution {\n        uint tokenId;\n        address ownerAddr;\n    }\n\n    // TODO define an array of the above struct\n    Solution[] solutions;\n\n    // TODO define a mapping to store unique solutions submitted\n    mapping (bytes32 => Solution) private uniqueSolutions;\n\n    function getVerifierKey(uint[2] memory a, uint[2][2] memory b, uint[2] memory c, uint[2] memory input) pure public returns(bytes32) {\n        return keccak256(abi.encodePacked(a, b, c, input));\n    }\n\n    // TODO Create an event to emit when a solution is added\n    event SolutionAdded(uint tokenid, address addr);\n\n    // TODO Create a function to add the solutions to the array and emit the event\n    function addSolution(uint tokenid, address addr, bytes32 key) public {\n\n        Solution memory sol = Solution({\n            tokenId: tokenid,\n            ownerAddr: addr\n        });\n\n        solutions.push(sol);\n        uniqueSolutions[key] = sol;\n        emit SolutionAdded(sol.tokenId, sol.ownerAddr);\n    }\n\n    // TODO Create a function to mint new NFT only after the solution has been verified\n    function mintToken(address addr, uint256 tokenId, uint[2] memory a, uint[2][2] memory b, uint[2] memory c, uint[2] memory input) public {\n        \n        bytes32 key = getVerifierKey(a, b, c, input);\n\n        //  - make sure the solution is unique (has not been used before)        \n        require(uniqueSolutions[key].ownerAddr == address(0), \"Solution must be unique to mint a token\");\n        require(verifier.verifyTx(a,b,c,input), \"Solution is not correct\");\n        \n        addSolution(tokenId, addr, key);\n        //  - make sure you handle metadata as well as tokenSupply\n        super.mint(addr, tokenId);\n    }\n}",
  "sourcePath": "/Users/ali/myProjects/BDND/ethereum/Capston/Udacity Capstone/eth-contracts/contracts/SolnSquareVerifier.sol",
  "compiler": {
    "name": "solc",
    "version": "0.5.8+commit.23d335f2.Emscripten.clang"
  },
  "schemaVersion": "3.0.16",
  "updatedAt": "2019-12-13T12:00:49.172Z",
  "devdoc": {
    "methods": {}
  },
  "userdoc": {
    "methods": {}
  }
}